:100000000C942A000C9434000C9434000C943400AA
:100010000C9434000C9434000C9434000C94340090
:100020000C9434000C9434000C9434000C94340080
:100030000C9434000C9434000C9434000C94340070
:100040000C9434000C9434000C9434000C94340060
:100050000C94340011241FBECFE5D8E0DEBFCDBF25
:100060000E9458010C9478010C940000843008F030
:1000700072C0683008F06FC04130A1F5813089F05E
:1000800028F08230C9F0833011F108952AB381E05D
:1000900090E002C0880F991F6A95E2F7822B8ABB15
:1000A000089527B381E090E002C0880F991F6A95F8
:1000B000E2F7822B87BB089524B381E090E002C071
:1000C000880F991F6A95E2F7822B84BB089521B3AC
:1000D00081E090E002C0880F991F6A95E2F7822BB9
:1000E00081BB0895411137C0813091F028F08230F2
:1000F000D9F0833029F108952AB381E090E002C05D
:10010000880F991F6A95E2F7809582238ABB08952C
:1001100027B381E090E002C0880F991F6A95E2F74B
:100120008095822387BB089524B381E090E002C0CC
:10013000880F991F6A95E2F78095822384BB089502
:1001400021B381E090E002C0880F991F6A95E2F721
:100150008095822381BB0895843008F072C0683096
:1001600008F06FC04130A1F5813089F028F082306D
:10017000C9F0833011F108952BB381E090E002C003
:10018000880F991F6A95E2F7822B8BBB089528B3DD
:1001900081E090E002C0880F991F6A95E2F7822BF8
:1001A00088BB089525B381E090E002C0880F991FB5
:1001B0006A95E2F7822B85BB089522B381E090E037
:1001C00002C0880F991F6A95E2F7822B82BB0895BF
:1001D000411137C0813091F028F08230D9F083305E
:1001E00029F108952BB381E090E002C0880F991F98
:1001F0006A95E2F7809582238BBB089528B381E04E
:1002000090E002C0880F991F6A95E2F780958223DB
:1002100088BB089525B381E090E002C0880F991F44
:100220006A95E2F78095822385BB089522B381E029
:1002300090E002C0880F991F6A95E2F780958223AB
:1002400082BB0895843070F5683070F5813079F0A4
:1002500028F08230A9F08330E1F028C089B390E023
:1002600002C0959587956A95E2F78170089586B3E7
:1002700090E002C0959587956A95E2F781700895A0
:1002800083B390E002C0959587956A95E2F78170F7
:10029000089580B390E002C0959587956A95E2F73E
:1002A0008170089580E0089580E0089580E00895C9
:1002B00040E060E080E00E94360041E060E080E0E5
:1002C0000E94AC0041E061E080E00E94360060E006
:1002D00080E00E942201811105C041E061E00E949E
:1002E000AC00F5CF40E061E080E00E94AC00EFCFD1
:0402F000F894FFCFB0
:00000001FF
